{
  "_format": "hh-sol-artifact-1",
  "contractName": "ZKSmartHealthCards",
  "sourceName": "contracts/ZKSmartHealthCards.sol",
  "abi": [
    {
      "inputs": [
        {
          "components": [
            {
              "internalType": "address",
              "name": "contractAddress",
              "type": "address"
            },
            {
              "internalType": "uint8",
              "name": "merkleTreeDepth",
              "type": "uint8"
            }
          ],
          "internalType": "struct IZKSmartHealthCards.Verifier[]",
          "name": "_verifiers",
          "type": "tuple[]"
        },
        {
          "internalType": "address[]",
          "name": "_relayers",
          "type": "address[]"
        }
      ],
      "stateMutability": "nonpayable",
      "type": "constructor"
    },
    {
      "inputs": [
        {
          "internalType": "address",
          "name": "relayerAddress",
          "type": "address"
        }
      ],
      "name": "AlreadyRelayer",
      "type": "error"
    },
    {
      "inputs": [
        {
          "internalType": "uint256",
          "name": "immunizationId",
          "type": "uint256"
        }
      ],
      "name": "ImmunizationNotFound",
      "type": "error"
    },
    {
      "inputs": [
        {
          "internalType": "uint8",
          "name": "depth",
          "type": "uint8"
        }
      ],
      "name": "InvalidTreeDepth",
      "type": "error"
    },
    {
      "inputs": [
        {
          "internalType": "address",
          "name": "relayerAddress",
          "type": "address"
        }
      ],
      "name": "NotRelayer",
      "type": "error"
    },
    {
      "anonymous": false,
      "inputs": [
        {
          "indexed": true,
          "internalType": "uint256",
          "name": "groupId",
          "type": "uint256"
        },
        {
          "indexed": false,
          "internalType": "uint8",
          "name": "depth",
          "type": "uint8"
        },
        {
          "indexed": false,
          "internalType": "uint256",
          "name": "zeroValue",
          "type": "uint256"
        }
      ],
      "name": "GroupCreated",
      "type": "event"
    },
    {
      "anonymous": false,
      "inputs": [
        {
          "indexed": true,
          "internalType": "uint256",
          "name": "immunizationId",
          "type": "uint256"
        },
        {
          "indexed": false,
          "internalType": "uint8",
          "name": "depth",
          "type": "uint8"
        },
        {
          "indexed": false,
          "internalType": "uint256",
          "name": "zeroValue",
          "type": "uint256"
        },
        {
          "indexed": true,
          "internalType": "address",
          "name": "adminAddress",
          "type": "address"
        },
        {
          "indexed": false,
          "internalType": "string",
          "name": "vaccineType",
          "type": "string"
        },
        {
          "indexed": false,
          "internalType": "string",
          "name": "vaccineCodeSystem",
          "type": "string"
        },
        {
          "indexed": false,
          "internalType": "string",
          "name": "vaccineCodeCode",
          "type": "string"
        }
      ],
      "name": "ImmunizationCreated",
      "type": "event"
    },
    {
      "anonymous": false,
      "inputs": [
        {
          "indexed": true,
          "internalType": "uint256",
          "name": "groupId",
          "type": "uint256"
        },
        {
          "indexed": false,
          "internalType": "uint256",
          "name": "identityCommitment",
          "type": "uint256"
        },
        {
          "indexed": false,
          "internalType": "uint256",
          "name": "root",
          "type": "uint256"
        }
      ],
      "name": "MemberAdded",
      "type": "event"
    },
    {
      "anonymous": false,
      "inputs": [
        {
          "indexed": true,
          "internalType": "uint256",
          "name": "groupId",
          "type": "uint256"
        },
        {
          "indexed": false,
          "internalType": "uint256",
          "name": "identityCommitment",
          "type": "uint256"
        },
        {
          "indexed": false,
          "internalType": "uint256",
          "name": "root",
          "type": "uint256"
        }
      ],
      "name": "MemberRemoved",
      "type": "event"
    },
    {
      "anonymous": false,
      "inputs": [
        {
          "indexed": false,
          "internalType": "uint256",
          "name": "nullifierHash",
          "type": "uint256"
        }
      ],
      "name": "NullifierHashAdded",
      "type": "event"
    },
    {
      "anonymous": false,
      "inputs": [
        {
          "indexed": true,
          "internalType": "address",
          "name": "previousOwner",
          "type": "address"
        },
        {
          "indexed": true,
          "internalType": "address",
          "name": "newOwner",
          "type": "address"
        }
      ],
      "name": "OwnershipTransferred",
      "type": "event"
    },
    {
      "anonymous": false,
      "inputs": [
        {
          "indexed": true,
          "internalType": "address",
          "name": "relayerAddress",
          "type": "address"
        }
      ],
      "name": "RelayerAdded",
      "type": "event"
    },
    {
      "anonymous": false,
      "inputs": [
        {
          "indexed": true,
          "internalType": "address",
          "name": "relayerAddress",
          "type": "address"
        }
      ],
      "name": "RelayerRemoved",
      "type": "event"
    },
    {
      "anonymous": false,
      "inputs": [
        {
          "components": [
            {
              "internalType": "address",
              "name": "contractAddress",
              "type": "address"
            },
            {
              "internalType": "uint8",
              "name": "merkleTreeDepth",
              "type": "uint8"
            }
          ],
          "indexed": false,
          "internalType": "struct IZKSmartHealthCards.Verifier",
          "name": "verifier",
          "type": "tuple"
        }
      ],
      "name": "VerifierAdded",
      "type": "event"
    },
    {
      "anonymous": false,
      "inputs": [
        {
          "components": [
            {
              "internalType": "address",
              "name": "contractAddress",
              "type": "address"
            },
            {
              "internalType": "uint8",
              "name": "merkleTreeDepth",
              "type": "uint8"
            }
          ],
          "indexed": false,
          "internalType": "struct IZKSmartHealthCards.Verifier",
          "name": "verifier",
          "type": "tuple"
        }
      ],
      "name": "VerifierRemoved",
      "type": "event"
    },
    {
      "anonymous": false,
      "inputs": [
        {
          "indexed": true,
          "internalType": "address",
          "name": "operator",
          "type": "address"
        }
      ],
      "name": "Withdraw",
      "type": "event"
    },
    {
      "stateMutability": "payable",
      "type": "fallback"
    },
    {
      "inputs": [
        {
          "internalType": "uint256",
          "name": "_immunizationId",
          "type": "uint256"
        },
        {
          "internalType": "uint256",
          "name": "_identityCommitment",
          "type": "uint256"
        }
      ],
      "name": "addMember",
      "outputs": [],
      "stateMutability": "nonpayable",
      "type": "function"
    },
    {
      "inputs": [
        {
          "internalType": "address",
          "name": "_relayer",
          "type": "address"
        }
      ],
      "name": "addRelayer",
      "outputs": [],
      "stateMutability": "nonpayable",
      "type": "function"
    },
    {
      "inputs": [
        {
          "components": [
            {
              "internalType": "address",
              "name": "contractAddress",
              "type": "address"
            },
            {
              "internalType": "uint8",
              "name": "merkleTreeDepth",
              "type": "uint8"
            }
          ],
          "internalType": "struct IZKSmartHealthCards.Verifier",
          "name": "_verifier",
          "type": "tuple"
        }
      ],
      "name": "addVerifier",
      "outputs": [],
      "stateMutability": "nonpayable",
      "type": "function"
    },
    {
      "inputs": [
        {
          "internalType": "uint256",
          "name": "_immunizationId",
          "type": "uint256"
        },
        {
          "internalType": "uint8",
          "name": "_depth",
          "type": "uint8"
        },
        {
          "internalType": "uint256",
          "name": "_zeroValue",
          "type": "uint256"
        },
        {
          "internalType": "string",
          "name": "_vaccineType",
          "type": "string"
        },
        {
          "internalType": "string",
          "name": "_vaccineCodeSystem",
          "type": "string"
        },
        {
          "internalType": "string",
          "name": "_vaccineCodeCode",
          "type": "string"
        }
      ],
      "name": "createImmunization",
      "outputs": [],
      "stateMutability": "payable",
      "type": "function"
    },
    {
      "inputs": [
        {
          "internalType": "uint256",
          "name": "groupId",
          "type": "uint256"
        }
      ],
      "name": "getDepth",
      "outputs": [
        {
          "internalType": "uint8",
          "name": "",
          "type": "uint8"
        }
      ],
      "stateMutability": "view",
      "type": "function"
    },
    {
      "inputs": [
        {
          "internalType": "uint256",
          "name": "groupId",
          "type": "uint256"
        }
      ],
      "name": "getNumberOfLeaves",
      "outputs": [
        {
          "internalType": "uint256",
          "name": "",
          "type": "uint256"
        }
      ],
      "stateMutability": "view",
      "type": "function"
    },
    {
      "inputs": [
        {
          "internalType": "uint256",
          "name": "groupId",
          "type": "uint256"
        }
      ],
      "name": "getRoot",
      "outputs": [
        {
          "internalType": "uint256",
          "name": "",
          "type": "uint256"
        }
      ],
      "stateMutability": "view",
      "type": "function"
    },
    {
      "inputs": [
        {
          "internalType": "uint256",
          "name": "",
          "type": "uint256"
        }
      ],
      "name": "immunizations",
      "outputs": [
        {
          "internalType": "address",
          "name": "adminAddress",
          "type": "address"
        },
        {
          "internalType": "string",
          "name": "vaccineType",
          "type": "string"
        },
        {
          "internalType": "string",
          "name": "vaccineCodeSystem",
          "type": "string"
        },
        {
          "internalType": "string",
          "name": "vaccineCodeCode",
          "type": "string"
        },
        {
          "internalType": "uint256",
          "name": "createdAt",
          "type": "uint256"
        }
      ],
      "stateMutability": "view",
      "type": "function"
    },
    {
      "inputs": [
        {
          "internalType": "uint256",
          "name": "_immunizationId",
          "type": "uint256"
        },
        {
          "internalType": "string",
          "name": "_vaccineCodeSystem",
          "type": "string"
        },
        {
          "internalType": "string",
          "name": "_vaccineCodeCode",
          "type": "string"
        }
      ],
      "name": "isEligible",
      "outputs": [
        {
          "internalType": "bool",
          "name": "",
          "type": "bool"
        }
      ],
      "stateMutability": "view",
      "type": "function"
    },
    {
      "inputs": [],
      "name": "owner",
      "outputs": [
        {
          "internalType": "address",
          "name": "",
          "type": "address"
        }
      ],
      "stateMutability": "view",
      "type": "function"
    },
    {
      "inputs": [
        {
          "internalType": "address",
          "name": "",
          "type": "address"
        }
      ],
      "name": "relayers",
      "outputs": [
        {
          "internalType": "bool",
          "name": "",
          "type": "bool"
        }
      ],
      "stateMutability": "view",
      "type": "function"
    },
    {
      "inputs": [
        {
          "internalType": "uint256",
          "name": "_immunizationId",
          "type": "uint256"
        },
        {
          "internalType": "uint256",
          "name": "_identityCommitment",
          "type": "uint256"
        },
        {
          "internalType": "uint256[]",
          "name": "_proofSiblings",
          "type": "uint256[]"
        },
        {
          "internalType": "uint8[]",
          "name": "_proofPathIndices",
          "type": "uint8[]"
        }
      ],
      "name": "removeMember",
      "outputs": [],
      "stateMutability": "nonpayable",
      "type": "function"
    },
    {
      "inputs": [
        {
          "internalType": "address",
          "name": "_relayer",
          "type": "address"
        }
      ],
      "name": "removeRelayer",
      "outputs": [],
      "stateMutability": "nonpayable",
      "type": "function"
    },
    {
      "inputs": [
        {
          "components": [
            {
              "internalType": "address",
              "name": "contractAddress",
              "type": "address"
            },
            {
              "internalType": "uint8",
              "name": "merkleTreeDepth",
              "type": "uint8"
            }
          ],
          "internalType": "struct IZKSmartHealthCards.Verifier",
          "name": "_verifier",
          "type": "tuple"
        }
      ],
      "name": "removeVerifier",
      "outputs": [],
      "stateMutability": "nonpayable",
      "type": "function"
    },
    {
      "inputs": [],
      "name": "renounceOwnership",
      "outputs": [],
      "stateMutability": "nonpayable",
      "type": "function"
    },
    {
      "inputs": [
        {
          "internalType": "address",
          "name": "newOwner",
          "type": "address"
        }
      ],
      "name": "transferOwnership",
      "outputs": [],
      "stateMutability": "nonpayable",
      "type": "function"
    },
    {
      "inputs": [
        {
          "internalType": "uint8",
          "name": "",
          "type": "uint8"
        }
      ],
      "name": "verifiers",
      "outputs": [
        {
          "internalType": "contract IVerifier",
          "name": "",
          "type": "address"
        }
      ],
      "stateMutability": "view",
      "type": "function"
    },
    {
      "inputs": [
        {
          "internalType": "uint256",
          "name": "_immunizationId",
          "type": "uint256"
        },
        {
          "internalType": "bytes32",
          "name": "_signal",
          "type": "bytes32"
        },
        {
          "internalType": "uint256",
          "name": "_nullifierHash",
          "type": "uint256"
        },
        {
          "internalType": "uint256",
          "name": "_externalNullifier",
          "type": "uint256"
        },
        {
          "internalType": "uint256[8]",
          "name": "_proof",
          "type": "uint256[8]"
        }
      ],
      "name": "verifyMembership",
      "outputs": [
        {
          "internalType": "bool",
          "name": "",
          "type": "bool"
        }
      ],
      "stateMutability": "view",
      "type": "function"
    },
    {
      "inputs": [],
      "name": "withdraw",
      "outputs": [],
      "stateMutability": "nonpayable",
      "type": "function"
    },
    {
      "stateMutability": "payable",
      "type": "receive"
    }
  ],
  "bytecode": "0x60806040523480156200001157600080fd5b50604051620039aa380380620039aa8339818101604052810190620000379190620005f4565b620000576200004b620001c660201b60201c565b620001ce60201b60201c565b60005b82518160ff1610156200011d57828160ff168151811062000080576200007f62000679565b5b60200260200101516000015160036000858460ff1681518110620000a957620000a862000679565b5b60200260200101516020015160ff1660ff16815260200190815260200160002060006101000a81548173ffffffffffffffffffffffffffffffffffffffff021916908373ffffffffffffffffffffffffffffffffffffffff16021790555080806200011490620006d7565b9150506200005a565b600090505b81518160ff161015620001bd57600160046000848460ff16815181106200014e576200014d62000679565b5b602002602001015173ffffffffffffffffffffffffffffffffffffffff1673ffffffffffffffffffffffffffffffffffffffff16815260200190815260200160002060006101000a81548160ff0219169083151502179055508080620001b490620006d7565b91505062000122565b50505062000706565b600033905090565b6000600260009054906101000a900473ffffffffffffffffffffffffffffffffffffffff16905081600260006101000a81548173ffffffffffffffffffffffffffffffffffffffff021916908373ffffffffffffffffffffffffffffffffffffffff1602179055508173ffffffffffffffffffffffffffffffffffffffff168173ffffffffffffffffffffffffffffffffffffffff167f8be0079c531659141344cd1fd0a4f28419497f9722a3daafe3b4186f6b6457e060405160405180910390a35050565b6000604051905090565b600080fd5b600080fd5b600080fd5b6000601f19601f8301169050919050565b7f4e487b7100000000000000000000000000000000000000000000000000000000600052604160045260246000fd5b620002f882620002ad565b810181811067ffffffffffffffff821117156200031a5762000319620002be565b5b80604052505050565b60006200032f62000294565b90506200033d8282620002ed565b919050565b600067ffffffffffffffff82111562000360576200035f620002be565b5b602082029050602081019050919050565b600080fd5b600080fd5b600073ffffffffffffffffffffffffffffffffffffffff82169050919050565b6000620003a8826200037b565b9050919050565b620003ba816200039b565b8114620003c657600080fd5b50565b600081519050620003da81620003af565b92915050565b600060ff82169050919050565b620003f881620003e0565b81146200040457600080fd5b50565b6000815190506200041881620003ed565b92915050565b60006040828403121562000437576200043662000376565b5b62000443604062000323565b905060006200045584828501620003c9565b60008301525060206200046b8482850162000407565b60208301525092915050565b60006200048e620004888462000342565b62000323565b90508083825260208201905060408402830185811115620004b457620004b362000371565b5b835b81811015620004e15780620004cc88826200041e565b845260208401935050604081019050620004b6565b5050509392505050565b600082601f830112620005035762000502620002a8565b5b81516200051584826020860162000477565b91505092915050565b600067ffffffffffffffff8211156200053c576200053b620002be565b5b602082029050602081019050919050565b6000620005646200055e846200051e565b62000323565b905080838252602082019050602084028301858111156200058a576200058962000371565b5b835b81811015620005b75780620005a28882620003c9565b8452602084019350506020810190506200058c565b5050509392505050565b600082601f830112620005d957620005d8620002a8565b5b8151620005eb8482602086016200054d565b91505092915050565b600080604083850312156200060e576200060d6200029e565b5b600083015167ffffffffffffffff8111156200062f576200062e620002a3565b5b6200063d85828601620004eb565b925050602083015167ffffffffffffffff811115620006615762000660620002a3565b5b6200066f85828601620005c1565b9150509250929050565b7f4e487b7100000000000000000000000000000000000000000000000000000000600052603260045260246000fd5b7f4e487b7100000000000000000000000000000000000000000000000000000000600052601160045260246000fd5b6000620006e482620003e0565b915060ff821415620006fb57620006fa620006a8565b5b600182019050919050565b61329480620007166000396000f3fe6080604052600436106101185760003560e01c8063715018a6116100a0578063b9c78c2b11610064578063b9c78c2b146103ac578063ba042216146103e9578063d1b2dd2814610426578063dd39f00d1461044f578063f2fde38b146104785761011f565b8063715018a6146102d457806375e618c9146102eb5780638993038c146103285780638da5cb5b146103445780639b24b3b01461036f5761011f565b80633ccfd60b116100e75780633ccfd60b146101f157806343989f85146102085780634f5972a0146102315780635300f8411461026e57806360f0a5ac146102ab5761011f565b80631783efc3146101215780631c1370b21461014a5780632d69be98146101735780633a9749d2146101b05761011f565b3661011f57005b005b34801561012d57600080fd5b5061014860048036038101906101439190611db7565b6104a1565b005b34801561015657600080fd5b50610171600480360381019061016c9190611f6f565b61054b565b005b34801561017f57600080fd5b5061019a60048036038101906101959190611f9c565b610661565b6040516101a79190612028565b60405180910390f35b3480156101bc57600080fd5b506101d760048036038101906101d29190612043565b610694565b6040516101e8959493929190612116565b60405180910390f35b3480156101fd57600080fd5b50610206610882565b005b34801561021457600080fd5b5061022f600480360381019061022a9190612239565b610a3a565b005b34801561023d57600080fd5b5061025860048036038101906102539190612336565b610aec565b60405161026591906123e6565b60405180910390f35b34801561027a57600080fd5b5061029560048036038101906102909190612401565b610bcd565b6040516102a291906123e6565b60405180910390f35b3480156102b757600080fd5b506102d260048036038101906102cd9190612401565b610bed565b005b3480156102e057600080fd5b506102e9610d95565b005b3480156102f757600080fd5b50610312600480360381019061030d9190612043565b610e1d565b60405161031f919061243d565b60405180910390f35b610342600480360381019061033d9190612458565b610e4a565b005b34801561035057600080fd5b50610359611131565b6040516103669190612547565b60405180910390f35b34801561037b57600080fd5b5061039660048036038101906103919190612043565b61115b565b6040516103a39190612562565b60405180910390f35b3480156103b857600080fd5b506103d360048036038101906103ce9190612043565b61117b565b6040516103e09190612562565b60405180910390f35b3480156103f557600080fd5b50610410600480360381019061040b91906125d5565b61119b565b60405161041d91906123e6565b60405180910390f35b34801561043257600080fd5b5061044d60048036038101906104489190611f6f565b61125b565b005b34801561045b57600080fd5b5061047660048036038101906104719190612401565b611351565b005b34801561048457600080fd5b5061049f600480360381019061049a9190612401565b6114fa565b005b600460006104ad6115f2565b73ffffffffffffffffffffffffffffffffffffffff1673ffffffffffffffffffffffffffffffffffffffff16815260200190815260200160002060009054906101000a900460ff1661053d576105016115f2565b6040517f366b2e5a0000000000000000000000000000000000000000000000000000000081526004016105349190612547565b60405180910390fd5b61054782826115fa565b5050565b6105536115f2565b73ffffffffffffffffffffffffffffffffffffffff16610571611131565b73ffffffffffffffffffffffffffffffffffffffff16146105c7576040517f08c379a00000000000000000000000000000000000000000000000000000000081526004016105be9061269d565b60405180910390fd5b806000015160036000836020015160ff1660ff16815260200190815260200160002060006101000a81548173ffffffffffffffffffffffffffffffffffffffff021916908373ffffffffffffffffffffffffffffffffffffffff1602179055507f564645df973dfb1e7efcea0a3fd8b1a17885b551004060cebd294079a39f12fd81604051610656919061270a565b60405180910390a150565b60036020528060005260406000206000915054906101000a900473ffffffffffffffffffffffffffffffffffffffff1681565b60056020528060005260406000206000915090508060000160009054906101000a900473ffffffffffffffffffffffffffffffffffffffff16908060010180546106dd90612754565b80601f016020809104026020016040519081016040528092919081815260200182805461070990612754565b80156107565780601f1061072b57610100808354040283529160200191610756565b820191906000526020600020905b81548152906001019060200180831161073957829003601f168201915b50505050509080600201805461076b90612754565b80601f016020809104026020016040519081016040528092919081815260200182805461079790612754565b80156107e45780601f106107b9576101008083540402835291602001916107e4565b820191906000526020600020905b8154815290600101906020018083116107c757829003601f168201915b5050505050908060030180546107f990612754565b80601f016020809104026020016040519081016040528092919081815260200182805461082590612754565b80156108725780601f1061084757610100808354040283529160200191610872565b820191906000526020600020905b81548152906001019060200180831161085557829003601f168201915b5050505050908060040154905085565b61088a6115f2565b73ffffffffffffffffffffffffffffffffffffffff166108a8611131565b73ffffffffffffffffffffffffffffffffffffffff16146108fe576040517f08c379a00000000000000000000000000000000000000000000000000000000081526004016108f59061269d565b60405180910390fd5b60004711610941576040517f08c379a0000000000000000000000000000000000000000000000000000000008152600401610938906127d2565b60405180910390fd5b600061094b611131565b73ffffffffffffffffffffffffffffffffffffffff164760405161096e90612823565b60006040518083038185875af1925050503d80600081146109ab576040519150601f19603f3d011682016040523d82523d6000602084013e6109b0565b606091505b50509050806109f4576040517f08c379a00000000000000000000000000000000000000000000000000000000081526004016109eb90612884565b60405180910390fd5b3373ffffffffffffffffffffffffffffffffffffffff167ff67611512e0a2d90c96fd3f08dca4971bc45fba9dc679eabe839a32abbe58a8e60405160405180910390a250565b60046000610a466115f2565b73ffffffffffffffffffffffffffffffffffffffff1673ffffffffffffffffffffffffffffffffffffffff16815260200190815260200160002060009054906101000a900460ff16610ad657610a9a6115f2565b6040517f366b2e5a000000000000000000000000000000000000000000000000000000008152600401610acd9190612547565b60405180910390fd5b610ae4868686868686611712565b505050505050565b60008484604051602001610b019291906128e3565b6040516020818303038152906040528051906020012060056000888152602001908152602001600020600201604051602001610b3d9190612990565b60405160208183030381529060405280519060200120148015610bc257508282604051602001610b6e9291906128e3565b6040516020818303038152906040528051906020012060056000888152602001908152602001600020600301604051602001610baa9190612990565b60405160208183030381529060405280519060200120145b905095945050505050565b60046020528060005260406000206000915054906101000a900460ff1681565b610bf56115f2565b73ffffffffffffffffffffffffffffffffffffffff16610c13611131565b73ffffffffffffffffffffffffffffffffffffffff1614610c69576040517f08c379a0000000000000000000000000000000000000000000000000000000008152600401610c609061269d565b60405180910390fd5b600460008273ffffffffffffffffffffffffffffffffffffffff1673ffffffffffffffffffffffffffffffffffffffff16815260200190815260200160002060009054906101000a900460ff16610cf757806040517f366b2e5a000000000000000000000000000000000000000000000000000000008152600401610cee9190612547565b60405180910390fd5b6000600460008373ffffffffffffffffffffffffffffffffffffffff1673ffffffffffffffffffffffffffffffffffffffff16815260200190815260200160002060006101000a81548160ff0219169083151502179055508073ffffffffffffffffffffffffffffffffffffffff167f10e1f7ce9fd7d1b90a66d13a2ab3cb8dd7f29f3f8d520b143b063ccfbab6906b60405160405180910390a250565b610d9d6115f2565b73ffffffffffffffffffffffffffffffffffffffff16610dbb611131565b73ffffffffffffffffffffffffffffffffffffffff1614610e11576040517f08c379a0000000000000000000000000000000000000000000000000000000008152600401610e089061269d565b60405180910390fd5b610e1b6000611836565b565b60006001600083815260200190815260200160002060000160009054906101000a900460ff169050919050565b87600073ffffffffffffffffffffffffffffffffffffffff16600360008360ff1660ff16815260200190815260200160002060009054906101000a900473ffffffffffffffffffffffffffffffffffffffff1673ffffffffffffffffffffffffffffffffffffffff161415610ef657806040517f2ad8ef12000000000000000000000000000000000000000000000000000000008152600401610eed919061243d565b60405180910390fd5b610f018a8a8a6118fc565b6040518060a001604052803373ffffffffffffffffffffffffffffffffffffffff16815260200188888080601f016020809104026020016040519081016040528093929190818152602001838380828437600081840152601f19601f82011690508083019250505050505050815260200186868080601f016020809104026020016040519081016040528093929190818152602001838380828437600081840152601f19601f82011690508083019250505050505050815260200184848080601f016020809104026020016040519081016040528093929190818152602001838380828437600081840152601f19601f82011690508083019250505050505050815260200142815250600560008c815260200190815260200160002060008201518160000160006101000a81548173ffffffffffffffffffffffffffffffffffffffff021916908373ffffffffffffffffffffffffffffffffffffffff1602179055506020820151816001019080519060200190611080929190611cca565b50604082015181600201908051906020019061109d929190611cca565b5060608201518160030190805190602001906110ba929190611cca565b50608082015181600401559050503373ffffffffffffffffffffffffffffffffffffffff168a7f87b30e892a6eb1d0020c374bf6ae3e7be6056e8d3183b55d493271b445b210f88b8b8b8b8b8b8b8b60405161111d9897969594939291906129d4565b60405180910390a350505050505050505050565b6000600260009054906101000a900473ffffffffffffffffffffffffffffffffffffffff16905090565b600060016000838152602001908152602001600020600101549050919050565b600060016000838152602001908152602001600020600201549050919050565b6000806111a78761115b565b905060006111b488610e1d565b905060008160ff1614156111ff57876040517f3e9753820000000000000000000000000000000000000000000000000000000081526004016111f69190612562565b60405180910390fd5b6000600360008360ff1660ff16815260200190815260200160002060009054906101000a900473ffffffffffffffffffffffffffffffffffffffff16905061124b888489898986611a6a565b6001935050505095945050505050565b6112636115f2565b73ffffffffffffffffffffffffffffffffffffffff16611281611131565b73ffffffffffffffffffffffffffffffffffffffff16146112d7576040517f08c379a00000000000000000000000000000000000000000000000000000000081526004016112ce9061269d565b60405180910390fd5b60036000826020015160ff1660ff16815260200190815260200160002060006101000a81549073ffffffffffffffffffffffffffffffffffffffff02191690557f351f5582b9b7e9da0e37173efe18b53007e0eeb1af62fdefc3dcc57f4ccb9b2d81604051611346919061270a565b60405180910390a150565b6113596115f2565b73ffffffffffffffffffffffffffffffffffffffff16611377611131565b73ffffffffffffffffffffffffffffffffffffffff16146113cd576040517f08c379a00000000000000000000000000000000000000000000000000000000081526004016113c49061269d565b60405180910390fd5b600460008273ffffffffffffffffffffffffffffffffffffffff1673ffffffffffffffffffffffffffffffffffffffff16815260200190815260200160002060009054906101000a900460ff161561145c57806040517f8e0a7e7c0000000000000000000000000000000000000000000000000000000081526004016114539190612547565b60405180910390fd5b6001600460008373ffffffffffffffffffffffffffffffffffffffff1673ffffffffffffffffffffffffffffffffffffffff16815260200190815260200160002060006101000a81548160ff0219169083151502179055508073ffffffffffffffffffffffffffffffffffffffff167f03580ee9f53a62b7cb409a2cb56f9be87747dd15017afc5cef6eef321e4fb2c560405160405180910390a250565b6115026115f2565b73ffffffffffffffffffffffffffffffffffffffff16611520611131565b73ffffffffffffffffffffffffffffffffffffffff1614611576576040517f08c379a000000000000000000000000000000000000000000000000000000000815260040161156d9061269d565b60405180910390fd5b600073ffffffffffffffffffffffffffffffffffffffff168173ffffffffffffffffffffffffffffffffffffffff1614156115e6576040517f08c379a00000000000000000000000000000000000000000000000000000000081526004016115dd90612ab4565b60405180910390fd5b6115ef81611836565b50565b600033905090565b600061160583610e1d565b60ff161415611649576040517f08c379a000000000000000000000000000000000000000000000000000000000815260040161164090612b46565b60405180910390fd5b6001600083815260200190815260200160002073__$4c0484323457fe1a856f46a4759b553fe4$__63168703fa9091836040518363ffffffff1660e01b8152600401611696929190612b7c565b60006040518083038186803b1580156116ae57600080fd5b505af41580156116c2573d6000803e3d6000fd5b5050505060006116d18361115b565b9050827f03fd27265b7dd1f55558bedc22a58fa3b10afb1be776e614bd5a7ba7b94994068383604051611705929190612ba5565b60405180910390a2505050565b600061171d87610e1d565b60ff161415611761576040517f08c379a000000000000000000000000000000000000000000000000000000000815260040161175890612b46565b60405180910390fd5b6001600087815260200190815260200160002073__$4c0484323457fe1a856f46a4759b553fe4$__630629596f909187878787876040518763ffffffff1660e01b81526004016117b696959493929190612d03565b60006040518083038186803b1580156117ce57600080fd5b505af41580156117e2573d6000803e3d6000fd5b5050505060006117f18761115b565b9050867fe270325ded177064d7bda473e6519ef40a291058c41286f71a6e4872f1e9ab5c8783604051611825929190612ba5565b60405180910390a250505050505050565b6000600260009054906101000a900473ffffffffffffffffffffffffffffffffffffffff16905081600260006101000a81548173ffffffffffffffffffffffffffffffffffffffff021916908373ffffffffffffffffffffffffffffffffffffffff1602179055508173ffffffffffffffffffffffffffffffffffffffff168173ffffffffffffffffffffffffffffffffffffffff167f8be0079c531659141344cd1fd0a4f28419497f9722a3daafe3b4186f6b6457e060405160405180910390a35050565b7f30644e72e131a029b85045b68181585d2833e84879b9709143e1f593f0000001831061195e576040517f08c379a000000000000000000000000000000000000000000000000000000000815260040161195590612dcc565b60405180910390fd5b600061196984610e1d565b60ff16146119ac576040517f08c379a00000000000000000000000000000000000000000000000000000000081526004016119a390612e5e565b60405180910390fd5b6001600084815260200190815260200160002073__$4c0484323457fe1a856f46a4759b553fe4$__63b4bdd117909184846040518463ffffffff1660e01b81526004016119fb93929190612e8d565b60006040518083038186803b158015611a1357600080fd5b505af4158015611a27573d6000803e3d6000fd5b50505050827fc3082aa494e9088c2c9f0fb62a0b6bd46e6699acb94cfba35be29b95a93f68c88383604051611a5d929190612ec4565b60405180910390a2505050565b60008085815260200190815260200160002060009054906101000a900460ff1615611aca576040517f08c379a0000000000000000000000000000000000000000000000000000000008152600401611ac190612f5f565b60405180910390fd5b6000611ad587611c93565b90508173ffffffffffffffffffffffffffffffffffffffff16635fe8c13b604051806040016040528086600060088110611b1257611b11612f7f565b5b6020020135815260200186600160088110611b3057611b2f612f7f565b5b60200201358152506040518060400160405280604051806040016040528089600260088110611b6257611b61612f7f565b5b6020020135815260200189600360088110611b8057611b7f612f7f565b5b60200201358152508152602001604051806040016040528089600460088110611bac57611bab612f7f565b5b6020020135815260200189600560088110611bca57611bc9612f7f565b5b6020020135815250815250604051806040016040528088600660088110611bf457611bf3612f7f565b5b6020020135815260200188600760088110611c1257611c11612f7f565b5b602002013581525060405180608001604052808c81526020018b81526020018781526020018a8152506040518563ffffffff1660e01b8152600401611c5a94939291906131db565b60006040518083038186803b158015611c7257600080fd5b505afa158015611c86573d6000803e3d6000fd5b5050505050505050505050565b6000600882604051602001611ca89190613243565b6040516020818303038152906040528051906020012060001c901c9050919050565b828054611cd690612754565b90600052602060002090601f016020900481019282611cf85760008555611d3f565b82601f10611d1157805160ff1916838001178555611d3f565b82800160010185558215611d3f579182015b82811115611d3e578251825591602001919060010190611d23565b5b509050611d4c9190611d50565b5090565b5b80821115611d69576000816000905550600101611d51565b5090565b6000604051905090565b600080fd5b600080fd5b6000819050919050565b611d9481611d81565b8114611d9f57600080fd5b50565b600081359050611db181611d8b565b92915050565b60008060408385031215611dce57611dcd611d77565b5b6000611ddc85828601611da2565b9250506020611ded85828601611da2565b9150509250929050565b600080fd5b6000601f19601f8301169050919050565b7f4e487b7100000000000000000000000000000000000000000000000000000000600052604160045260246000fd5b611e4582611dfc565b810181811067ffffffffffffffff82111715611e6457611e63611e0d565b5b80604052505050565b6000611e77611d6d565b9050611e838282611e3c565b919050565b600073ffffffffffffffffffffffffffffffffffffffff82169050919050565b6000611eb382611e88565b9050919050565b611ec381611ea8565b8114611ece57600080fd5b50565b600081359050611ee081611eba565b92915050565b600060ff82169050919050565b611efc81611ee6565b8114611f0757600080fd5b50565b600081359050611f1981611ef3565b92915050565b600060408284031215611f3557611f34611df7565b5b611f3f6040611e6d565b90506000611f4f84828501611ed1565b6000830152506020611f6384828501611f0a565b60208301525092915050565b600060408284031215611f8557611f84611d77565b5b6000611f9384828501611f1f565b91505092915050565b600060208284031215611fb257611fb1611d77565b5b6000611fc084828501611f0a565b91505092915050565b6000819050919050565b6000611fee611fe9611fe484611e88565b611fc9565b611e88565b9050919050565b600061200082611fd3565b9050919050565b600061201282611ff5565b9050919050565b61202281612007565b82525050565b600060208201905061203d6000830184612019565b92915050565b60006020828403121561205957612058611d77565b5b600061206784828501611da2565b91505092915050565b61207981611ea8565b82525050565b600081519050919050565b600082825260208201905092915050565b60005b838110156120b957808201518184015260208101905061209e565b838111156120c8576000848401525b50505050565b60006120d98261207f565b6120e3818561208a565b93506120f381856020860161209b565b6120fc81611dfc565b840191505092915050565b61211081611d81565b82525050565b600060a08201905061212b6000830188612070565b818103602083015261213d81876120ce565b9050818103604083015261215181866120ce565b9050818103606083015261216581856120ce565b90506121746080830184612107565b9695505050505050565b600080fd5b600080fd5b600080fd5b60008083601f8401126121a3576121a261217e565b5b8235905067ffffffffffffffff8111156121c0576121bf612183565b5b6020830191508360208202830111156121dc576121db612188565b5b9250929050565b60008083601f8401126121f9576121f861217e565b5b8235905067ffffffffffffffff81111561221657612215612183565b5b60208301915083602082028301111561223257612231612188565b5b9250929050565b6000806000806000806080878903121561225657612255611d77565b5b600061226489828a01611da2565b965050602061227589828a01611da2565b955050604087013567ffffffffffffffff81111561229657612295611d7c565b5b6122a289828a0161218d565b9450945050606087013567ffffffffffffffff8111156122c5576122c4611d7c565b5b6122d189828a016121e3565b92509250509295509295509295565b60008083601f8401126122f6576122f561217e565b5b8235905067ffffffffffffffff81111561231357612312612183565b5b60208301915083600182028301111561232f5761232e612188565b5b9250929050565b60008060008060006060868803121561235257612351611d77565b5b600061236088828901611da2565b955050602086013567ffffffffffffffff81111561238157612380611d7c565b5b61238d888289016122e0565b9450945050604086013567ffffffffffffffff8111156123b0576123af611d7c565b5b6123bc888289016122e0565b92509250509295509295909350565b60008115159050919050565b6123e0816123cb565b82525050565b60006020820190506123fb60008301846123d7565b92915050565b60006020828403121561241757612416611d77565b5b600061242584828501611ed1565b91505092915050565b61243781611ee6565b82525050565b6000602082019050612452600083018461242e565b92915050565b600080600080600080600080600060c08a8c03121561247a57612479611d77565b5b60006124888c828d01611da2565b99505060206124998c828d01611f0a565b98505060406124aa8c828d01611da2565b97505060608a013567ffffffffffffffff8111156124cb576124ca611d7c565b5b6124d78c828d016122e0565b965096505060808a013567ffffffffffffffff8111156124fa576124f9611d7c565b5b6125068c828d016122e0565b945094505060a08a013567ffffffffffffffff81111561252957612528611d7c565b5b6125358c828d016122e0565b92509250509295985092959850929598565b600060208201905061255c6000830184612070565b92915050565b60006020820190506125776000830184612107565b92915050565b6000819050919050565b6125908161257d565b811461259b57600080fd5b50565b6000813590506125ad81612587565b92915050565b6000819050826020600802820111156125cf576125ce612188565b5b92915050565b600080600080600061018086880312156125f2576125f1611d77565b5b600061260088828901611da2565b95505060206126118882890161259e565b945050604061262288828901611da2565b935050606061263388828901611da2565b9250506080612644888289016125b3565b9150509295509295909350565b7f4f776e61626c653a2063616c6c6572206973206e6f7420746865206f776e6572600082015250565b600061268760208361208a565b915061269282612651565b602082019050919050565b600060208201905081810360008301526126b68161267a565b9050919050565b6126c681611ea8565b82525050565b6126d581611ee6565b82525050565b6040820160008201516126f160008501826126bd565b50602082015161270460208501826126cc565b50505050565b600060408201905061271f60008301846126db565b92915050565b7f4e487b7100000000000000000000000000000000000000000000000000000000600052602260045260246000fd5b6000600282049050600182168061276c57607f821691505b602082108114156127805761277f612725565b5b50919050565b7f4e6f7420456e6f7567682042616c616e6365204f6620436f6e74726163740000600082015250565b60006127bc601e8361208a565b91506127c782612786565b602082019050919050565b600060208201905081810360008301526127eb816127af565b9050919050565b600081905092915050565b50565b600061280d6000836127f2565b9150612818826127fd565b600082019050919050565b600061282e82612800565b9150819050919050565b7f5472616e73666572204661696c65640000000000000000000000000000000000600082015250565b600061286e600f8361208a565b915061287982612838565b602082019050919050565b6000602082019050818103600083015261289d81612861565b9050919050565b600081905092915050565b82818337600083830152505050565b60006128ca83856128a4565b93506128d78385846128af565b82840190509392505050565b60006128f08284866128be565b91508190509392505050565b60008190508160005260206000209050919050565b6000815461291e81612754565b61292881866128a4565b94506001821660008114612943576001811461295457612987565b60ff19831686528186019350612987565b61295d856128fc565b60005b8381101561297f57815481890152600182019150602081019050612960565b838801955050505b50505092915050565b600061299c8284612911565b915081905092915050565b60006129b3838561208a565b93506129c08385846128af565b6129c983611dfc565b840190509392505050565b600060a0820190506129e9600083018b61242e565b6129f6602083018a612107565b8181036040830152612a0981888a6129a7565b90508181036060830152612a1e8186886129a7565b90508181036080830152612a338184866129a7565b90509998505050505050505050565b7f4f776e61626c653a206e6577206f776e657220697320746865207a65726f206160008201527f6464726573730000000000000000000000000000000000000000000000000000602082015250565b6000612a9e60268361208a565b9150612aa982612a42565b604082019050919050565b60006020820190508181036000830152612acd81612a91565b9050919050565b7f53656d6170686f726547726f7570733a2067726f757020646f6573206e6f742060008201527f6578697374000000000000000000000000000000000000000000000000000000602082015250565b6000612b3060258361208a565b9150612b3b82612ad4565b604082019050919050565b60006020820190508181036000830152612b5f81612b23565b9050919050565b8082525050565b612b7681611d81565b82525050565b6000604082019050612b916000830185612b66565b612b9e6020830184612b6d565b9392505050565b6000604082019050612bba6000830185612107565b612bc76020830184612107565b9392505050565b600082825260208201905092915050565b600080fd5b6000612bf08385612bce565b93507f07ffffffffffffffffffffffffffffffffffffffffffffffffffffffffffffff831115612c2357612c22612bdf565b5b602083029250612c348385846128af565b82840190509392505050565b600082825260208201905092915050565b6000819050919050565b612c6481611ee6565b82525050565b6000612c768383612c5b565b60208301905092915050565b6000612c916020840184611f0a565b905092915050565b6000602082019050919050565b6000612cb28385612c40565b9350612cbd82612c51565b8060005b85811015612cf657612cd38284612c82565b612cdd8882612c6a565b9750612ce883612c99565b925050600181019050612cc1565b5085925050509392505050565b6000608082019050612d186000830189612b66565b612d256020830188612b6d565b8181036040830152612d38818688612be4565b90508181036060830152612d4d818486612ca6565b9050979650505050505050565b7f53656d6170686f726547726f7570733a2067726f7570206964206d757374206260008201527f65203c20534e41524b5f5343414c41525f4649454c4400000000000000000000602082015250565b6000612db660368361208a565b9150612dc182612d5a565b604082019050919050565b60006020820190508181036000830152612de581612da9565b9050919050565b7f53656d6170686f726547726f7570733a2067726f757020616c7265616479206560008201527f7869737473000000000000000000000000000000000000000000000000000000602082015250565b6000612e4860258361208a565b9150612e5382612dec565b604082019050919050565b60006020820190508181036000830152612e7781612e3b565b9050919050565b612e8781611ee6565b82525050565b6000606082019050612ea26000830186612b66565b612eaf6020830185612e7e565b612ebc6040830184612b6d565b949350505050565b6000604082019050612ed9600083018561242e565b612ee66020830184612107565b9392505050565b7f53656d6170686f7265436f72653a20796f752063616e6e6f742075736520746860008201527f652073616d65206e756c6c696669657220747769636500000000000000000000602082015250565b6000612f4960368361208a565b9150612f5482612eed565b604082019050919050565b60006020820190508181036000830152612f7881612f3c565b9050919050565b7f4e487b7100000000000000000000000000000000000000000000000000000000600052603260045260246000fd5b600060029050919050565b600081905092915050565b6000819050919050565b612fd781611d81565b82525050565b6000612fe98383612fce565b60208301905092915050565b6000602082019050919050565b61300b81612fae565b6130158184612fb9565b925061302082612fc4565b8060005b838110156130515781516130388782612fdd565b965061304383612ff5565b925050600181019050613024565b505050505050565b600060029050919050565b600081905092915050565b6000819050919050565b600081905092915050565b61308d81612fae565b6130978184613079565b92506130a282612fc4565b8060005b838110156130d35781516130ba8782612fdd565b96506130c583612ff5565b9250506001810190506130a6565b505050505050565b60006130e78383613084565b60408301905092915050565b6000602082019050919050565b61310981613059565b6131138184613064565b925061311e8261306f565b8060005b8381101561314f57815161313687826130db565b9650613141836130f3565b925050600181019050613122565b505050505050565b600060049050919050565b600081905092915050565b6000819050919050565b6000602082019050919050565b61318d81613157565b6131978184613162565b92506131a28261316d565b8060005b838110156131d35781516131ba8782612fdd565b96506131c583613177565b9250506001810190506131a6565b505050505050565b6000610180820190506131f16000830187613002565b6131fe6040830186613100565b61320b60c0830185613002565b613219610100830184613184565b95945050505050565b6000819050919050565b61323d6132388261257d565b613222565b82525050565b600061324f828461322c565b6020820191508190509291505056fea2646970667358221220e3329f82b364a676149d5cf7fd154039456d06032547e1a16a4c090a3d9f674064736f6c63430008090033",
  "linkReferences": {
    "@zk-kit/incremental-merkle-tree.sol/contracts/IncrementalBinaryTree.sol": {
      "IncrementalBinaryTree": [
        {
          "length": 20,
          "start": 7540
        },
        {
          "length": 20,
          "start": 7820
        },
        {
          "length": 20,
          "start": 8407
        }
      ]
    }
  },
  "deployedLinkReferences": {
    "@zk-kit/incremental-merkle-tree.sol/contracts/IncrementalBinaryTree.sol": {
      "IncrementalBinaryTree": [
        {
          "length": 20,
          "start": 5726
        },
        {
          "length": 20,
          "start": 6006
        },
        {
          "length": 20,
          "start": 6593
        }
      ]
    }
  }
}